:1000000000100020B5010000B1010000B1010000A6
:10001000B1010000B1010000B1010000B101000018
:10002000B1010000B1010000B1010000B101000008
:10003000B1010000B1010000B1010000B1010000F8
:10004000B1010000B1010000B1010000B1010000E8
:10005000B1010000B1010000B1010000B1010000D8
:10006000B1010000B1010000B1010000B1010000C8
:10007000B1010000B1010000B1010000B1010000B8
:10008000B1010000B1010000B1010000B1010000A8
:10009000B1010000B1010000B1010000B101000098
:1000A000B1010000B1010000B1010000B101000088
:1000B000B1010000B1010000B1010000B101000078
:1000C000B1010000B1010000B1010000B101000068
:1000D000B1010000B1010000B1010000B101000058
:1000E000B1010000B1010000B1010000B101000048
:1000F000B1010000B1010000B101000010B5054CD4
:10010000237833B9044B13B10448AFF300800123C3
:10011000237010BD80100020000000003C2600006D
:1001200008B5034B1BB103490348AFF3008008BD7A
:1001300000000000841000203C260000154B002B1E
:1001400008BF134B9D46A3F5803A00218B460F460E
:100150001348144A121A00F0F6FF0F4B002B00D080
:1001600098470E4B002B00D0984700200021040038
:100170000D000D48002802D00C48AFF3008000F0BD
:10018000B3FF2000290000F05DFF00F099FF00BFE1
:100190000000080000100020000000000000000027
:1001A00080100020AC1000200000000000000000C3
:1001B000FEE7000008B500F043F8064B0649074A81
:1001C0008B4201D3FFF7BAFF52F8040F43F8040B38
:1001D000F6E700BF0010002080100020402600003D
:1001E000104AD2F8943003F00703023B032B13D8D4
:1001F000DFE803F00C14020E0B4B1B68D2F8000171
:10020000C0F304200130B3FBF0F07047074BF4E774
:10021000074B1B685B08F1E7054BEEE74FF4004323
:10022000ECE700BF00400E40081000200010002046
:1002300004100020014B1868704700BF0010002018
:10024000044B054A9A60D3F8882042F47002C3F840
:100250008820704700ED00E0000000004FF40040EF
:1002600070474FF47A707047014B1868704700BFB1
:1002700008100020054A06491368184488428CBFBC
:100280004FF0FF3310601846704700BF0C1000207D
:1002900000000120FEE700001F2810B5044604D925
:1002A00040F225110248FFF7F5FF0120A04010BDE4
:1002B000B4230000044BD3F84421D20703D4D3F86D
:1002C00040211042FBD1704700400E40C0F3032292
:1002D000013A38B50546092A21D8DFE802F0272A75
:1002E000202005131620191D134C0020C5F30435DA
:1002F00008B1FFF7DFFF04F1047405EBC404A400A8
:10030000216038BD01200D4CF0E710200C4CEDE7CA
:100310004FF480300B4CE9E700200B4CE6E741F24C
:10032000C7710A48BDE83840FFF7B4BF0020084C49
:10033000DCE70020074CD9E7B0400E40E0400E401B
:10034000E8400E40F0400E4050410E4015240000A1
:1003500000400E40C0400E4008B5C0F30313013BFF
:10036000092B60D8DFE803F0050B0F195F5F1F232F
:100370003C532E4BD3F80001C0F3042008BD2B4B97
:10038000D3F81401F8E7294BD3F80001C0F300605B
:100390000130FFF781FF0138F0E7244BD3F80C015F
:1003A000C0F30820EAE7214BD3F80801F8E7204B17
:1003B000984209D01F4B98420CD041F66B111E4851
:1003C000FFF768FF0020D9E7184BD3F8200100F0B1
:1003D0000F00DEE7154BD3F82001C0F30110D8E77A
:1003E000164B984208D003F5B01303F5805398429A
:1003F00006D041F68F11E2E70C4BD3F82801ECE769
:100400000A4BD3F82801C0F301200430C1E70C4B9C
:10041000984205D1054BD3F8300100F00300ADE759
:1004200041F69E11CBE741F6C311C8E700400E40EC
:100430008006160080162E001524000090171A0062
:10044000A009140008B5FFF787FF013008BD0000C0
:1004500000F00F00013808B5072856D8DFE800F093
:1004600004172455333D55452E4BD3F8943003F0F3
:100470000703023B052B08D8DFE803F04E2D50039D
:1004800007050B2008BD0C20FCE70520FAE7254BEB
:10049000D3F8803003F00703013B042B17D8DFE8C3
:1004A00003F01A3D16183F001E4BD3F8843003F0BA
:1004B0000703013B042B0AD8DFE803F00D30030BE0
:1004C00032000620DEE7174BD3F88830E2E7012040
:1004D000D8E70A20D6E70320D4E7124B1B6F13F0AE
:1004E000010F14BF09200720CCE70E4BD3F85C3175
:1004F00003F03003202B0FD0302B04D0102B0CBF77
:1005000007200120BEE70820BCE7074841F6175145
:10051000FFF7C0FE0020B5E70420B3E70220B1E7F3
:100520000D20AFE700400E40152400002C4B9842F0
:1005300010B504460AD02B4B984207D02A4B98425C
:1005400004D041F22A312948FFF7A4FE2046FFF7E4
:100550007FFF234B9C4211D0224B9C4212D0224B56
:100560009C4213D1224BD3F8804004F00704052CA1
:100570002ED8DFE804F02B12161E1A121C4BD3F8EB
:100580008440F2E71A4BD3F88840EEE7044641F284
:1005900059311648FFF77EFEE9E7BDE81040FFF746
:1005A0005DBEBDE81040FFF75FBEBDE81040FFF73D
:1005B00058BEFFF715FE0E4B0446D3F80001C0F3FA
:1005C00000600130FFF768FEB4FBF0F4204610BD78
:1005D00041F2AB310548FFF75DFE0024F6E700BFAE
:1005E000030020000500240002001E001524000066
:1005F00000400E4038B500F47813B3F5B01F05463F
:100600007DD02AD8B3F5202F07D00AD8B3F5003F04
:1006100062D0B3F5802F54D05BB9BDE83840FFF706
:10062000DFBDB3F5602F00F0878005D8B3F5402F0C
:1006300058D041F6F70189E0B3F5801F00F0A4809F
:10064000B3F5A01FF5D15A48FFF770FF594BD3F807
:10065000303103F00303D8403DE0B3F5101F69D0FB
:1006600012D8B3F5F01F45D0B3F5001F55D0B3F540
:10067000D01FDED15048FFF759FF4E4B0446D3F848
:100680002801C0F3011043E0B3F5401F47D00BD859
:10069000B3F5381FCDD14948FFF748FF454BD3F894
:1006A0002031C3F30113D6E7B3F5481F53D0B3F598
:1006B000781FBED1FFF794FD04462846FFF7C2FE1F
:1006C00028E0FFF78DFD3B4BD3F80C31C3F3082333
:1006D0000133B0FBF3F038BDFFF782FD354BD3F8A3
:1006E0000831F3E7FFF77CFD324BD3F81431C3F345
:1006F0000423EDE73148BDE83840FFF717BF2F4826
:10070000FFF714FF2B4B0446D3F8200100F00F0035
:10071000FFF7C2FDB4FBF0F0DDE72748EBE7264822
:10072000FFF704FF234B0446D3F82801C0F3012050
:100730000430EDE71E48DEE72148FFF789FE072871
:1007400022D009283FF469AF41F2EC011D48FFF7C0
:10075000A1FD0020BFE71C48FFF77AFE01380728FB
:1007600023D801A353F820F053070000AB07000083
:10077000AB0700008F070000AB070000AB070000CD
:100780008907000097070000104B1868A3E7BDE831
:100790003840FFF74FBDFFF723FD064BD3F800317C
:1007A000C3F3042303FB000095E741F22311CDE7D7
:1007B0000500240000400E400300200002001E003F
:1007C00006000E0015240000B800320010100020B2
:1007D00038B50D460446C0B1012818D0022819D0FA
:1007E00003281AD005280CBFFF2300232B41DB0769
:1007F00004D44FF482610A48FFF74CFD30235C4378
:100800000121084BA940195138BD3F23EEE74FF4B1
:100810007843EBE74FF47C63E8E74FF47E43E5E78A
:10082000742400000CA0004638B50D460446C0B143
:10083000012818D0022819D003281AD005280CBF87
:10084000FF2300232B41DB0704D440F2E1310A48A7
:10085000FFF720FD30235C430121084BA9401951CB
:1008600038BD3F23EEE74FF47843EBE74FF47C636A
:10087000E8E74FF47E43E5E7742400000CA0004451
:10088000F8B50C4615461E46074688B3012831D0F8
:10089000022832D0032833D0052814BF0023FF23B9
:1008A0002341DB0704D440F21D112248FFF7F2FC7C
:1008B00025B12146384636B3FFF78AFF30237B4304
:1008C00003F18043072C03F520431FD85A68A10089
:1008D0000F20884022EA000205FA01F10A435A601B
:1008E00035BB21463846FEB1BDE8F840FFF770BF82
:1008F0003F23D5E74FF47843D2E74FF47C63CFE74B
:100900004FF47E43CCE7FFF78FFFD7E704F1804237
:10091000083A996892000F20904021EA000105FAF8
:1009200002F20A439A60DBE7BDE8F840FFF77CBFBC
:10093000F8BD00BF4424000010B5044618B9412199
:100940000C48FFF7A7FC0C4A536911699B0003F0A0
:100950003C03C1F381110B43A370136903F03F0300
:1009600063709369D26903F0F003C2F30312134377
:10097000237010BDD3240000D0FF0FE02DE9F0411B
:10098000064688461D46174622B94FF4A1712E48E7
:10099000FFF780FCB8F1000F03D12C48FFF72AFEC7
:1009A0008046202D3AD007D8A5B140F289112648BB
:1009B000BDE8F041FFF76EBC402D39D0602DF4D179
:1009C000B7EB980F04D940F283111F48FFF762FC80
:1009D000042208E0B7EB181F04D94FF4BA711A4883
:1009E000FFF758FC10227A43540804EB4814184FC0
:1009F000B4FBF2F4203CE400BC4204D940F29F1165
:100A00001148FFF747FC336823F060033360336815
:100A10003C401D4335607461BDE8F081B7EBD80FF1
:100A200004D940F279110848FFF734FC0822DAE7CC
:100A30000624B8FBF4F3BB4204D24FF4BF71024862
:100A4000FFF728FC2246CEE70525000040410500BF
:100A5000F8FF7F0070B506460C46154622B940F2F5
:100A600086210B48FFF716FC1CB90A48FFF7C2FDA8
:100A70000446013C6D00B4FBF5F42402E30DDB05F4
:100A800023B140F2A3210248FFF704FC746170BD5A
:100A9000052500004041050038B50C4B984204463E
:100AA0000D460CD003F58063984208D003F58063AF
:100AB000984204D040F2BE210548FFF7EBFBEB4320
:100AC0005B0003F00A03E360E56038BD000001400D
:100AD0000525000038B5184B184D984204460AD039
:100AE000A84208D003F50063984204D040F22B419D
:100AF0001348FFF7CFFB40F6AA63E36041F205021B
:100B00000023236062600F4AA3606361E364A26410
:100B1000094A236694426367A367E36705D0AC4242
:100B200003D002F50062944200D123650023AC4259
:100B3000A36508BFE36538BD000001400004014023
:100B400005250000F9FF010038B5244B9842044602
:100B50000D460CD003F58063984208D003F58063FE
:100B6000984204D040F2EF211D48FFF793FB204646
:100B7000FFF7B0FFAB7C1BB1236843F080432360D9
:100B8000EB7C1BB12B7D43F08003A3652A8A6B7B32
:100B90001343EA8913436360D5E901122B7B204696
:100BA000FFF7ECFE6B7D1BB1236843F480332360B9
:100BB000AB7DEA7D1B07120502F4E00203F0E0437F
:100BC00013432366636F23F030036367626F2B7EEA
:100BD000134363672B78E36038BD00BF000001401A
:100BE0000525000038B5284B984204460D460CD028
:100BF00003F58063984208D003F58063984204D0DF
:100C000040F256312148FFF745FB2046FFF762FFCF
:100C1000A97B2A8A2368002942F0010214BF4FF4FD
:100C20008061002113430B432A7D23602368002A3F
:100C300014BF4FF00052002213432360AB7C1BB162
:100C4000EB7C43F08003A3652B7B43F4805363600C
:100C5000D5E901122046FFF7FDFE6B7B0BB1102397
:100C6000E3606B7D1BB1236843F480332360AB7D6D
:100C7000EA7D1B07120503F0E04302F4E002134390
:100C800023662B78E36038BD000001400525000095
:100C900003695A06FCD5416303699B06FCD5C0690C
:100CA000C0B2704703695B06FCD541637047000022
:100CB000022838B514BF4FF47E434FF47C630B41D8
:100CC000DB0704460D4604D440F2E1310448FFF747
:100CD000E1FA302001216043024BA940195038BD90
:100CE000742400000CA00044022838B514BF4FF44F
:100CF0007E434FF47C630B41DB0704460D4604D46E
:100D00004FF482610448FFF7C5FA302001216043A7
:100D1000024BA940195038BD742400000CA00046B5
:100D2000F0B585B001AD02460849094F284600F0EC
:100D30002BFA00240646B44201D105B0F0BD295D6E
:100D40003846FFF7AFFF0134F5E700BF7825000014
:100D5000000001407FB51A4B6A4603F108051646AC
:100D600018685968144603C40833AB422246F7D1C9
:100D700018689B88A380206009210320FFF798FF53
:100D800020211048104C114DFFF782FF20702720C2
:100D9000FFF7C6FF27210B48FFF77AFF09212070D4
:100DA0000320FFF7A1FF2720FFF7BAFF0024315DE2
:100DB00028460134FFF776FF0D2CF8D104B070BD42
:100DC0009125000000040140A41000200000014013
:100DD00038B50C4D044609210320FFF769FF44F0A4
:100DE00080012846FFF754FF074C00212070284659
:100DF000FFF74EFF092120700320FFF775FF2078D1
:100E000038BD00BF00040140A4100020792838B587
:100E100015D07A2815D078280CBF2825002528461B
:100E2000FFF7D6FF0446681CC0B2FFF7D1FF44EAC3
:100E30000020B0F5004FA8BFA0F5803038BD2A25AE
:100E4000EDE72C25EBE708B504220123072102205A
:100E5000FFF716FD0123042209210320FFF710FDEF
:100E6000012304220A210320FFF70AFD07210220A3
:100E7000FFF73AFF09210320BDE80840FFF734BF20
:100E800030B5012189B01748174DFFF71FFA01212E
:100E90001648FFF71BFA01211548FFF717FA0FCD87
:100EA00001AC0FC495E8070084E80700114C01A9C4
:100EB0002046FFF749FE0123184604220E21FFF7C2
:100EC000DFFC04212046FFF7E7FDA36F23F4F8536E
:100ED00043F41063A367636F43F00203636709B0D1
:100EE00030BD00BF4041050038250000003204003D
:100EF00000350A000000014030B5012187B02648C6
:100F0000264DFFF7E3F901212548FFF7DFF901211D
:100F10002448FFF7DBF90FCD6C460FC495E80300BA
:100F200084E80300204C0125694620468DF80D50C9
:100F30008DF80E50FFF756FEA36F23F4F853A36706
:100F4000636F43F002036367A36F23F01F03A3677C
:100F5000636F2B436367A36F23F0F853A367636F3B
:100F600043F0080363670023194618460422FFF77D
:100F700087FC2B462A4629460020FFF781FC0023E8
:100F8000184604220221FFF77BFC05212046FFF7CB
:100F900083FD07B030BD00BF40410500542500006F
:100FA0000042040000350A00000401407FB51D4ADC
:100FB0001068516801AB03C3906818601A4B012296
:100FC0005A641A6842F480721A606846FFF7B4FCEB
:100FD0009DF80130012B01AE03D89DF80030022BA3
:100FE00009D9124B4FF418721A60114A5A60114A0B
:100FF0005A66114ADA66114A114D136843F4F843F0
:101000001360FFF73DFFFFF777FFFFF71CFF00249A
:10101000315D28460134FFF745FE0B2CF8D104B0B2
:1010200070BD00BF6C25000000000E408C420E40D9
:101030009A6F05001801000400843208A4310E40A4
:10104000000001402DE9F04190B0FFF7AFFFFFF73E
:1010500081FE134F134E00F027F800F025F807210A
:101060000220FFF725FE7820FFF7D0FE0446792006
:10107000FFF7CCFE80467A20FFF7C8FE03AD009054
:10108000434622463946284600F07EF80024804632
:101090004445E0D0295D3046FFF704FE0134F7E710
:1010A0007D2500000000014038B5044D6424284629
:1010B00000F052F8013CFAD138BD00BF9F25000076
:1010C00008B5074B044613B10021AFF30080054B70
:1010D0001868836A03B19847204601F05DF900BFA4
:1010E00000000000A425000070B50D4E0D4CA41B9F
:1010F000A4100025A54209D10B4E0C4C01F04EF96D
:10110000A41BA4100025A54205D170BD56F82530BA
:1011100098470135EEE756F8253098470135F2E754
:101120007810002078100020781000207C1000201B
:1011300010B5431E0A44914200D110BD11F8014B75
:1011400003F8014FF7E702440346934200D170478A
:1011500003F8011BF9E700000FB40A4B13B51C6834
:1011600024B1A36913B9204600F06EF805AB049AC8
:10117000A1680193204600F0C5FA02B0BDE8104016
:1011800004B07047141000200EB400B59CB01DAB25
:10119000029006906FF000410948079104910949B7
:1011A00053F8042B05910068019302A900F08AF915
:1011B000029B00221A701CB05DF804EB03B070476C
:1011C000141000200802FFFF002310B50446C0E9F8
:1011D0000033836081814366C281C0E90433836147
:1011E000194608225C30FFF7AEFF054B6362054BE2
:1011F000A362054BE362054B2462236310BD00BF6D
:101200005D1C00007F1C0000B71C0000DB1C000000
:10121000014900F085B800BFB51F000070B54A1E37
:10122000682555430E4605F1740100F097F8044611
:1012300040B10021C0E900160C30A06005F1680241
:10124000FFF781FF204670BD836910B5044633BBAC
:10125000C0E912330365124B124A1B68826298423E
:1012600004BF0123836100F01FF86060204600F096
:101270001BF8A060204600F017F80022E06004216F
:101280006068FFF7A1FF01220921A068FFF79CFF1A
:1012900002221221E068FFF797FF0123A36110BD2E
:1012A000A425000011120000F8B51B4B1E68B3699D
:1012B000074613B93046FFF7C7FF4836D6E9013471
:1012C000013B03D5336833B13668F7E7B4F90C5006
:1012D0006DB16834F4E704213846FFF79FFF3060B2
:1012E0000028F1D10C233B6004462046F8BD0B4B8F
:1012F0006566C4E90055A560C4E90335C4E9055530
:101300000822294604F15C00FFF71DFFC4E90D55D2
:10131000C4E91255E9E700BFA42500000100FFFF62
:101320002DE9F8438046894600F14804002614B9A7
:101330003046BDE8F883D4E90175013F01D5246842
:10134000F5E7AB89012B07D9B5F90E30013303D08E
:1013500029464046C84706436835EEE770B5CD1CC0
:1013600025F0030508350C2D38BF0C25002D064649
:1013700001DBA94203D90C233360002070BD00F0CB
:1013800028FF214A1468214691B9204C23681BB9D3
:10139000304600F053FC20602946304600F04EFCF9
:1013A000431C24D10C233360304600F013FFE4E7E4
:1013B0000B685B1B18D40B2B0FD90B60CD50CC18CE
:1013C000304600F007FF04F10B00231D20F007005A
:1013D000C31AD3D05A42E250D0E78C424B6816BFB2
:1013E000636013600C46EBE70C464968CCE7C41C0D
:1013F00024F00304A04205D0211A304600F01EFC60
:101400000130CFD02560DBE79C100020A010002029
:101410002DE9F0478E689E4282460C4690469946DA
:1014200037D88A8912F4906F31D0256809696F1A0C
:101430006569022305EB450595FBF3F509F1010309
:101440003B449D4238BF1D46530530D52946FFF722
:1014500085FF064650B90C23CAF80030A38943F033
:101460004003A3814FF0FF30BDE8F0873A46216981
:10147000FFF75EFEA38923F4906343F08003A3810A
:10148000266165613E44ED1B2660A5604E464E45D3
:1014900000D94E4632464146206800F081FEA368DE
:1014A0009B1BA36023681E4426600020DCE72A46BD
:1014B00000F0E0FE06460028E2D12169504600F027
:1014C0008BFEC8E72DE9F04F9DB0804603938B89D2
:1014D0001D060C4616460FD50B696BB94021FFF768
:1014E0003DFF2060206128B90C23C8F800304FF080
:1014F000FF30C7E0402363610023099320238DF868
:10150000293030238DF82A304FF0010B37463D4605
:1015100015F8013B0BB1252B3ED1B7EB060A0BD0DA
:101520005346324621464046FFF772FF013000F035
:10153000A480099B534409933B78002B00F09D80C5
:1015400000234FF0FF32CDE90523049307938DF874
:1015500053301A932F46052217F8011B4F4800F00D
:10156000CFFD049BD0B9D90644BF20228DF853206B
:101570001A0744BF2B228DF853202A782A2A15D027
:10158000079A2F4600200A25394611F8013B303BC7
:10159000092B4DD9B8B10FE02F46B8E73F4A801A62
:1015A0000BFA00F0184304903D46D3E7039A111D4F
:1015B00012680391002A01DB079204E0524243F0D3
:1015C0000203079204933B782E2B0CD17B782A2BB5
:1015D00033D1039B1A1D1B680392002BB8BF4FF039
:1015E000FF33023705932E4D39780322284600F049
:1015F00087FD38B14023401B03FA00F0049B0343EE
:1016000001370493397827488DF8281006227E1C6C
:1016100000F076FD002838D0234B13BB039B073323
:1016200023F0070308330393099B4B4409936DE7A9
:1016300005FB023201200F46A6E700230137059380
:1016400019460A25384610F8012B303A092A03D9E1
:10165000002BC8D00591C6E705FB012101230746F1
:10166000F0E703AB00932246104B04A94046AFF3CA
:101670000080B0F1FF3F8146D6D1A3895B063FF5DC
:1016800036AF09981DB0BDE8F08F03AB009322463A
:10169000064B04A9404600F0BFF9EAE7082600001F
:1016A0000E260000122600000000000011140000A9
:1016B0009368013B002B10B4936008DA9469A3424D
:1016C00001DB0A2903D15DF8044B00F00BBB136862
:1016D000581C1060197008465DF8044B7047F8B547
:1016E00006460F461446D518AC4201D1002007E04B
:1016F0003A4614F8011B3046FFF7DAFF431CF3D1DA
:10170000F8BD00002DE9F04F9DB00C46174603933D
:10171000064618B183690BB9FFF796FD7B4B9C42D7
:1017200057D17468A38918075DD52369002B5AD057
:101730000023099320238DF8293030238DF82A3097
:101740004FF0010BB846454615F8013B0BB1252B70
:1017500054D1B8EB070A0BD053463A4621463046DF
:10176000FFF7BDFF013000F0C280099B534409938D
:1017700098F80030002B00F0BA8000234FF0FF32C1
:10178000CDE90523049307938DF853301A93A846A7
:10179000052218F8011B5E4800F0B2FC049B78BBE0
:1017A000D90644BF20228DF853201A0744BF2B22AC
:1017B0008DF853202A782A2A2AD0079AA846002092
:1017C0000A25414611F8013B303B092B69D960B32A
:1017D00024E0504B9C4201D1B468A3E74E4B9C429D
:1017E00008BFF4689EE72146304600F0DFFA002883
:1017F0009ED04FF0FF301DB0BDE8F08FA846A2E7A5
:10180000434A801A0BFA00F0184304904546BEE79D
:10181000039A111D12680391002A01DB079204E06C
:10182000524243F002030792049398F800302E2BA3
:101830000ED198F801302A2B38D1039B1A1D1B6852
:101840000392002BB8BF4FF0FF3308F10208059355
:10185000324D98F800100322284600F051FC40B1A8
:101860004023401B03FA00F0049B034308F10108E6
:10187000049398F800102A488DF82810062208F1E1
:10188000010700F03DFC002837D0264B1BBB039B13
:10189000073323F0070308330393099B4B44099351
:1018A00050E705FB0232012088468AE7002308F151
:1018B0000108059319460A25404610F8012B303AD5
:1018C000092A03D9002BC3D00591C1E705FB0121EB
:1018D00001238046F0E703AB00932246124B04A994
:1018E0003046AFF30080B0F1FF3F8146D5D1A389E8
:1018F0005B063FF57EAF09987DE703AB0093224678
:10190000094B04A9304600F087F8ECE7C825000031
:1019100008260000E8250000A82500000E2600008B
:101920001226000000000000DF1600002DE9F0473D
:1019300091461F468A680B69DDF820809342B8BF44
:101940001346C9F8003091F8432006460C4612B100
:101950000133C9F800302368990642BFD9F8003036
:101960000233C9F80030256815F0060507D104F1E7
:10197000190AE368D9F800209B1AAB4228DC94F8D6
:1019800043302268003318BF012392062DD404F19E
:10199000430239463046C047013020D02368E5680D
:1019A000D9F8002003F00603042B08BFAD1AA36882
:1019B00022690CBF25EAE57500259342C4BF9B1A36
:1019C000ED184FF000091A344D451AD1002008E0F7
:1019D0000123524639463046C047013003D14FF00B
:1019E000FF30BDE8F0870135C3E7E1185A1C30200D
:1019F00081F84300224494F8451082F843100233E2
:101A0000C5E70123224639463046C0470130E6D0BB
:101A100009F10109D8E700002DE9F04301F1430C79
:101A20000C46097E85B06E291746064698460C9AE4
:101A300000F0B38022D8632936D00AD8002900F0FC
:101A4000B980582900F0838004F1420584F84210DF
:101A500032E0642901D06929F6D1206813680506AF
:101A600003F104012AD51B681160002B03DA2D2233
:101A70005B4284F843206F480A2239E0732900F062
:101A80009D8008D86F2920D07029DDD1236843F0CC
:101A90002003236003E0752917D07829D4D1782357
:101AA00084F84530644855E01368191D1B681160BF
:101AB00004F1420584F8423001238CE01B68116078
:101AC00010F0400F18BF1BB2CFE713682568181D30
:101AD0001060280601D51B6802E06806FBD51B884C
:101AE00054486F2914BF0A220822002184F84310A9
:101AF0006568A560002DC0F29580216821F0040181
:101B00002160002B3DD1002D40F08E806546082AD3
:101B10000BD12368DB0708D5236962689A42DEBFD0
:101B2000302305F8013C05F1FF35ACEB05032361DB
:101B3000CDF800803B4603AA21463046FFF7F6FE6B
:101B400001304DD14FF0FF3005B0BDE8F08339488A
:101B500084F84510136821681D1D1B6815600A066E
:101B60000BD5CA0744BF41F0200121601BB9226890
:101B700022F0200222601022B7E74D0648BF9BB238
:101B8000EFE76546B3FBF2F102FB1133C35C05F8E6
:101B9000013D0B460029F5D1B9E713682568616955
:101BA000181D106028061B6801D5196002E06A063E
:101BB000FBD51980002323616546B9E71368191D19
:101BC00011601D6862680021284600F099FA08B18A
:101BD000401B606063682361002384F84330A7E7FB
:101BE00023692A4639463046C0470130AAD02368C7
:101BF0009B0713D4E068039B9842B8BF1846A3E73D
:101C000001234A4639463046C04701309AD0013553
:101C1000E368039A9B1AAB42F2DCEBE7002504F180
:101C20001909F5E7002BACD1037884F8423004F1B0
:101C300042056CE7192600002A26000038B5064C3C
:101C40000023054608462360FEF714FB431C02D11F
:101C5000236803B12B6038BDA810002010B50C46D6
:101C6000B1F90E1000F02CFB0028ABBF636DA38907
:101C70001B1823F48053ACBF6365A38110BD2DE90D
:101C8000F0411F468B89DB0505460C46164605D5F7
:101C900002230022B1F90E1000F0B6F9A389B4F9BD
:101CA0000E1023F48053A38132463B462846BDE8FC
:101CB000F04100F069B810B50C46B1F90E1000F013
:101CC000A3F9431CA38915BF606523F4805343F433
:101CD0008053A38118BFA38110BDB1F90E1000F08D
:101CE000D3B80000F8B50E461446054618B183690E
:101CF0000BB9FFF7A9FA214B9C422AD16C68A36962
:101D0000A360A3891A072ED5236963B323692068CA
:101D1000C01A6369F6B28342374604DC214628467E
:101D200000F048F928BBA368013BA36023685A1C54
:101D300022601E7063690130834204D0A389DB07EF
:101D400019D50A2E17D12146284600F033F990B153
:101D50000FE00B4B9C4201D1AC68D0E7094B9C4291
:101D600008BFEC68CBE72146284600F01FF80028A2
:101D7000CCD04FF0FF373846F8BD00BFC825000073
:101D8000E8250000A825000038B5074C05460846A0
:101D90001146002222601A4600F0F6FA431C02D1D6
:101DA000236803B12B6038BDA8100020324B70B5FA
:101DB0001D6806460C4625B1AB6913B92846FFF7E6
:101DC00043FA2E4B9C420FD16C68B4F90C309AB296
:101DD00015072CD4D00611D40922326043F04003F9
:101DE000A3814FF0FF303EE0254B9C4201D1AC680F
:101DF000EBE7244B9C4208BFEC68E6E7510712D59D
:101E0000616B41B104F14403994202D0304600F0C5
:101E1000E3F900236363A38923F02403A381002350
:101E2000636023692360A38943F00803A3812369C6
:101E30004BB9A38903F42073B3F5007F03D0214687
:101E4000304600F017F9A28912F001030CD00023EC
:101E5000A36063695B42A361236953B9B4F90C3091
:101E600013F08000BAD170BD920758BF6369A360B8
:101E7000F2E70020F7E700BF14100020C82500009B
:101E8000E8250000A825000038B5064C00230546CB
:101E90000846236000F050FA431C02D1236803B1C6
:101EA0002B6038BDA81000208A892DE9F041054635
:101EB00010070C4658D44B68002B05DC0B6C002B2C
:101EC00002DC0020BDE8F081E66A002EF9D0002394
:101ED00012F480522F68216A2B6032D0606DA38982
:101EE0005A0705D56368C01A636B0BB1236CC01A1F
:101EF00000230246E66A216A2846B047431CA389AC
:101F000006D129681D2948D8294ACA40D60744D590
:101F100000226260D9042269226004D5421C01D1EA
:101F20002B6803B96065616B2F600029C9D004F18B
:101F30004403994202D0284600F04EF90020606325
:101F4000C0E701232846B047411CC8D12B68002BAD
:101F5000C5D01D2B01D0162B01D12F60B1E7A3896D
:101F600043F04003A381ADE70F69002FA9D0930789
:101F70000E6808BF4B690F6018BF0023A6EB070867
:101F80008B60B8F1000F9CDD43463A46216AA66A91
:101F90002846B047002806DCA38943F04003A3810C
:101FA0004FF0FF308EE70744A8EB0008E9E700BFD9
:101FB0000100402038B50B6905460C46DBB118B16D
:101FC00083690BB9FFF740F90C4B9C4209D16C684F
:101FD000B4F90C307BB121462846BDE83840FFF704
:101FE00063BF074B9C4201D1AC68F1E7054B9C42B3
:101FF00008BFEC68ECE7002038BD00BFC825000032
:10200000E8250000A825000038B5074C054608461D
:102010001146002222601A4600F0A6F9431C02D1A4
:10202000236803B12B6038BDA810002070B50E46A0
:10203000B1F90E10002996B014461D4607DA0023A8
:102040002B60B3891A0610D44FF480630EE06A4601
:1020500000F048F90028F2DB019A02F47042A2F580
:1020600000535A425A412A60EEE740230020236081
:1020700016B070BD8B8973B59D0706460C4607D513
:1020800004F14703236023610123636102B070BD43
:1020900001AB6A46FFF7CAFF009905463046FFF7D5
:1020A0005DF948B9B4F90C309A05EFD423F0030375
:1020B00043F00203A381E3E70D4BB362A3892060E1
:1020C00043F08003A381009B6361019B20615BB1AE
:1020D000B4F90E10304600F017F928B1A38923F0A7
:1020E000030343F00103A381A3891D43A581CDE729
:1020F00011120000000000000000000000000000BD
:1021000001F0FF01102A2BDB10F0070F08D010F8A8
:10211000013B013A8B422DD010F0070F42B3F6D1AC
:10212000F0B441EA012141EA014122F007047FF0C5
:1021300000070023F0E80256083C85EA010586EA1C
:10214000010685FA47F5A3FA87F586FA47F6A5FA58
:1021500087F68EB9EED1F0BC01F0FF0102F0070264
:1021600032B110F8013B013A83EA010313B1F8D10F
:102170000020704701387047002D06BF35460338F0
:10218000073815F0010F07D1013015F4807F02BF29
:10219000013015F4C03F0130F0BC0138704700BF7A
:1021A000884210B501EB020307D8421E99420AD0BB
:1021B00011F8014B02F8014FF8E78342F5D9811875
:1021C000D21AD34200D110BD13F8014D01F8014DD0
:1021D000F7E770477047000038B50546002945D03D
:1021E00051F8043C0C1F002BB8BFE418FFF7F1FFB7
:1021F0001F4A1368104633B9636014602846BDE86F
:102200003840FFF7E7BFA3420CD921686218934218
:1022100004BF1A685B68636004BF521822600460E0
:10222000ECE713465A680AB1A242FAD9196858185D
:10223000A0420BD120680144581882421960DDD1B8
:10224000106852685A6001441960D7E702D90C231C
:102250002B60D3E7206821188A4204BF11685268B6
:10226000626004BF091821605C60C7E738BD00BF29
:102270009C100020F8B5074614460E4621B91146B9
:10228000BDE8F840FFF76AB822B9FFF7A5FF254679
:102290002846F8BD00F048F8A0420FD22146384643
:1022A000FFF75CF805460028F2D031462246FEF7DB
:1022B0003FFF31463846FFF78FFFE9E73546E7E74E
:1022C00038B5074C054608461146002222601A46DA
:1022D00000F052F8431C02D1236803B12B6038BDD3
:1022E000A810002038B5074C0023054608461146C3
:1022F000236000F029F8431C02D1236803B12B604E
:1023000038BD00BFA810002038B5064C0023054694
:102310000846236000F020F8431C02D1236803B173
:102320002B6038BDA810002051F8043C181F002B6A
:10233000BCBF0B58C0187047024B58221A604FF0B0
:10234000FF307047A8100020024B58221A604FF04F
:10235000FF307047A8100020024B58221A6000205E
:10236000704700BFA8100020024B58221A604FF09F
:10237000FF307047A8100020024B58221A604FF01F
:10238000FF307047A8100020024B58221A604FF00F
:10239000FF307047A8100020FEE700BFF8B500BF6F
:1023A000F8BC08BC9E467047F8B500BFF8BC08BC36
:1023B0009E467047433A5C55736572735C4461672F
:1023C00075725C53696D706C696369747953747567
:1023D00064696F5C76355F776F726B73706163658C
:1023E0005C6164616C5C6765636B6F5F73646B5F9A
:1023F000332E312E315C706C6174666F726D5C656A
:102400006D6C69625C696E632F656D5F636F6D6D86
:102410006F6E2E68002E2E2F6765636B6F5F73647F
:102420006B5F332E312E312F706C6174666F726D5D
:102430002F656D6C69622F7372632F656D5F636DBD
:10244000752E63002E2E2F6765636B6F5F73646B51
:102450005F332E312E312F706C6174666F726D2F69
:10246000656D6C69622F7372632F656D5F6770694C
:102470006F2E6300433A5C55736572735C44616709
:1024800075725C53696D706C6963697479537475A6
:1024900064696F5C76355F776F726B7370616365CB
:1024A0005C6164616C5C6765636B6F5F73646B5FD9
:1024B000332E312E315C706C6174666F726D5C65A9
:1024C0006D6C69625C696E632F656D5F6770696FC3
:1024D0002E68002E2E2F6765636B6F5F73646B5FD2
:1024E000332E312E312F706C6174666F726D2F65D3
:1024F0006D6C69622F7372632F656D5F737973748E
:10250000656D2E63002E2E2F6765636B6F5F73649E
:102510006B5F332E312E312F706C6174666F726D6C
:102520002F656D6C69622F7372632F656D5F7573B4
:102530006172742E630000000500000000000000BE
:1025400000C20100000500000010000000000000B3
:1025500000000000050000000000000040420F00E5
:10256000050100000000000000000000494E495431
:1025700020444F4E450D0A0025640D0A00583A09C3
:10258000256409593A092564095A3A0925640A0D4E
:102590000057414B45555020444F4E450D0A0041D0
:1025A00000000000181000200000000000000000E3
:1025B000000000000000000000000000000000001B
:1025C000000000000000000000000000000000000B
:1025D00000000000000000000000000000000000FB
:1025E00000000000000000000000000000000000EB
:1025F00000000000000000000000000000000000DB
:102600000000000000000000232D302B2000686C2B
:102610004C00656667454647003031323334353605
:10262000373839414243444546003031323334353E
:0C2630003637383961626364656600006B
:08263C0000DBFF7F010000003C
:1026440000F04902C0EA210100800000B01000201F
:10265400C0EA21011810002000000000C825000075
:10266400E8250000A825000000000000000000008C
:102674000000000000000000000000000000000056
:102684000000000000000000000000000000000046
:102694000000000000000000000000000000000036
:1026A4000000000000000000000000000000000026
:1026B400000000000000000021010000FD000000F7
:04000003000001B543
:00000001FF
